:020000040800F2
:1000000000500020F5080008110800081908000831
:100010002108000829080008310800080000000035
:100020000000000000000000000000003908000887
:100030004508000800000000510800085D0800089D
:100040003D0900083D0900083D0900083D09000878
:100050003D0900083D0900083D0900083D09000868
:100060003D0900083D0900083D0900083D09000858
:100070003D0900083D0900083D0900083D09000848
:100080003D0900083D0900083D0900083D09000838
:100090003D0900083D0900083D0900083D09000828
:1000A0003D0900083D0900083D0900083D09000818
:1000B0003D090008690800083D0900083D090008DD
:1000C0003D0900083D0900083D0900083D090008F8
:1000D0003D0900083D0900083D0900083D090008E8
:1000E0003D0900083D0900083D0900080000000026
:1000F0000000000000000000000000000000000000
:0C01000000000000000000005FF808F1A3
:10010C0010B5054C237833B9044B13B10448AFF345
:10011C0000800123237010BD5C0000200000000053
:10012C006829000808B5034B1BB103490348AFF31A
:10013C00008008BD00000000600000206829000855
:10014C0080B582B000AF03463960FB713B68DBB20F
:10015C001A464FF40061224800F004FFFB79DB08DB
:10016C00DBB203F00103DBB21A464FF400411D4829
:10017C0000F0F8FEFB799B08DBB203F00103DBB265
:10018C001A464FF48041174800F0ECFEFB795B08EF
:10019C00DBB203F00103DBB21A464FF400511148F5
:1001AC0000F0E0FEFB7903F00103DBB21A464FF4DA
:1001BC0080510C4800F0D6FE01224FF480710848A3
:1001CC0000F0D0FE00224FF48071054800F0CAFE0A
:1001DC00012000F011FC00BF0837BD4680BD00BFF8
:1001EC0000080140000C014080B584B000AF03460C
:1001FC00FB71FB791B09FB73FB7B00211846FFF796
:10020C009FFFFB7903F00F03FB73FB7B0021184668
:10021C00FFF796FF00BF1037BD4680BD80B584B098
:10022C0000AF0346FB71FB791B09FB73FB7B0121C0
:10023C001846FFF785FFFB7903F00F03FB73FB7B7D
:10024C0001211846FFF77CFF00BF1037BD4680BD6B
:10025C0080B582B000AF786039607B68002B03D02A
:10026C007B68012B05D009E03B6843F080033B60C1
:10027C0004E03B6843F0C0033B6000BF3B68DBB26B
:10028C001846FFF7B1FF00BF0837BD4680BD80B5EB
:10029C0000AF322000F0B0FB3020FFF7A5FF0520A7
:1002AC0000F0AAFB3020FFF79FFF012000F0A4FB19
:1002BC003020FFF799FF0A2000F09EFB0220FFF789
:1002CC0093FF012000F098FB2820FFF78DFF012001
:1002DC0000F092FB0820FFF787FF012000F08CFB59
:1002EC000120FFF781FF012000F086FB012000F0C8
:1002FC0083FB0620FFF778FF012000F07DFB0C202C
:10030C00FFF772FF00BF80BD80B582B000AF786090
:10031C0006E07B685A1C7A601B781846FFF77EFF54
:10032C007B681B78002BF4D100BF00BF0837BD469B
:10033C0080BD000080B483B000AF78607B681B6820
:10034C000E4A934214D14FF080435B6A0C4A1360FF
:10035C000B4B1A6813469B0013449B001A46094B1F
:10036C001A60064B00225A624FF0804300225A62F8
:10037C0000BF0C37BD4680BC704700BF0004004076
:10038C00080100200C01002080B500AF00F0D2FA6B
:10039C0000F03CF800F020F900F07EF800F0CEF808
:1003AC00134801F03FFA134801F086FAFFF76FFF8C
:1003BC0000210020FFF74CFF0F48FFF7A5FF4FF47B
:1003CC0000510E4800F0E6FD0D4B1B681A460D4916
:1003DC000D4801F013FE08210020FFF739FF0A48F1
:1003EC00FFF792FF4FF47A7000F006FB00BFE6E7D0
:1003FC0078000020C0000020802900080010014077
:10040C000C0100208C2900081001002080B590B050
:10041C0000AF07F1180328220021184601F010FE46
:10042C003B1D00221A605A609A60DA601A6101233F
:10043C00BB614FF48033FB6100233B620123BB6241
:10044C0002237B634FF48033BB634FF4E013FB63F5
:10045C0007F11803184600F0B7FD0346002B01D036
:10046C0000F040F90F237B600223BB600023FB608C
:10047C004FF480633B6100237B613B1D02211846D6
:10048C0001F024F80346002B01D000F02BF900BF3B
:10049C004037BD4680BD000080B586B000AF07F187
:1004AC00080300221A605A609A60DA603B46002208
:1004BC001A605A60204B4FF080421A601E4B00228B
:1004CC005A601D4B00229A601B4B4FF6FF72DA608C
:1004DC00194B00221A61184B80229A61164801F0C0
:1004EC0051F90346002B01D000F0FCF84FF40053F7
:1004FC00BB600023FB6000233B6100237B6107F1A1
:10050C00080319460C4801F019FB0346002B01D0D7
:10051C0000F0E8F800233B6000237B603B46194663
:10052C00054801F0FBFC0346002B01D000F0DAF883
:10053C0000BF1837BD4680BD7800002080B586B05E
:10054C0000AF07F1080300221A605A609A60DA6063
:10055C003B4600221A605A601D4B1E4A1A601C4B07
:10056C0064225A601A4B00229A60194B48F6A0423A
:10057C00DA60174B00221A61154B80229A611448DD
:10058C0001F000F90346002B01D000F0ABF84FF45A
:10059C008053BB6007F1080319460D4801F0CEFAF1
:1005AC000346002B01D000F09DF800233B60002394
:1005BC007B603B461946064801F0B0FC0346002B15
:1005CC0001D000F08FF800BF1837BD4680BD00BFCA
:1005DC00C00000200004004080B588B000AF07F1D7
:1005EC00100300221A605A609A60DA60394B9B69DA
:1005FC00384A43F010039361364B9B6903F01003A8
:10060C00FB60FB68334B9B69324A43F020039361D8
:10061C00304B9B6903F02003BB60BB682D4B9B697F
:10062C002C4A43F0040393612A4B9B6903F00403A7
:10063C007B607B68274B9B69264A43F008039361D8
:10064C00244B9B6903F008033B603B6800224FF48A
:10065C000051214800F086FC00224FF470411F48E5
:10066C0000F080FC00224FF410611D4800F07AFC71
:10067C004FF400533B6101237B610023BB610223D8
:10068C00FB6107F110031946134800F0E7FA4FF429
:10069C0070433B6101237B610023BB610223FB613F
:1006AC0007F1100319460D4800F0D8FA4FF4106307
:1006BC003B6101237B610023BB610223FB6107F1DA
:1006CC0010031946064800F0C9FA00BF2037BD4692
:1006DC0080BD00BF0010024000100140000C014022
:1006EC000008014080B400AF72B600BF00BFFDE748
:1006FC0080B485B000AF154B9B69144A43F00103DD
:10070C009361124B9B6903F00103BB60BB680F4BF9
:10071C00DB690E4A43F08053D3610C4BDB6903F069
:10072C0080537B607B680A4B5B68FB60FB6823F043
:10073C00E063FB60FB6843F00073FB60044AFB68FA
:10074C00536000BF1437BD4680BC70470010024098
:10075C000000014080B58AB000AF786007F1180343
:10076C0000221A605A609A60DA607B681B68B3F1E9
:10077C00804F24D1204BDB691F4A43F00103D36126
:10078C001D4BDB6903F001037B617B691A4B9B6991
:10079C00194A43F004039361174B9B6903F004035C
:1007AC003B613B690123BB610023FB6100233B627E
:1007BC0007F118031946114800F050FA18E07B684D
:1007CC001B680F4A934213D10B4BDB690A4A43F067
:1007DC000203D361084BDB6903F00203FB60FB6887
:1007EC00002200211D2000F002FA1D2000F01BFA4F
:1007FC0000BF2837BD4680BD0010024000080140F4
:10080C000004004080B400AF00BFFDE780B400AF2F
:10081C0000BFFDE780B400AF00BFFDE780B400AFC0
:10082C0000BFFDE780B400AF00BFFDE780B400AFB0
:10083C0000BFBD4680BC704780B400AF00BFBD4652
:10084C0080BC704780B400AF00BFBD4680BC704711
:10085C0080B500AF00F0B4F800BF80BD80B500AF2C
:10086C00024801F07BF800BF80BD00BFC000002033
:10087C0080B586B000AF7860144A154BD31A7B61F3
:10088C007B693B61134B1B68002B02D1114B124A45
:10089C001A60104B1A687B6813443A699A4207D263
:1008AC0001F0D6FB03460C221A604FF0FF3309E02F
:1008BC00084B1B68FB60074B1A687B681344054A9E
:1008CC001360FB6818461837BD4680BD00500020E9
:1008DC0000040000200100207002002080B400AF52
:1008EC0000BFBD4680BC7047FFF7F8FF0B480C49B2
:1008FC000C4A002302E0D458C4500433C4188C4270
:10090C00F9D3094A094C002301E013600432A242D6
:10091C00FBD301F0A3FBFFF737FD7047000000206D
:10092C005C000020F42900085C000020700200200C
:10093C00FEE7000080B500AF084B1B68074A43F088
:10094C0010031360032000F047F90F2000F008F8A3
:10095C00FFF7CEFE0023184680BD00BF00200240EA
:10096C0080B582B000AF7860124B1A68124B1B78BE
:10097C0019464FF47A73B3FBF1F3B2FBF3F3184659
:10098C0000F05FF90346002B01D001230EE07B68D9
:10099C000F2B0AD8002279684FF0FF3000F027F9AE
:1009AC00064A7B681360002300E0012318460837D1
:1009BC00BD4680BD0000002008000020040000207F
:1009CC0080B400AF054B1B781A46054B1B681344CB
:1009DC00034A136000BFBD4680BC7047080000206E
:1009EC002401002080B400AF024B1B681846BD46A2
:1009FC0080BC70472401002080B584B000AF7860C3
:100A0C00FFF7F0FFB8607B68FB60FB68B3F1FF3F5A
:100A1C0005D00A4B1B781A46FB681344FB6000BFD9
:100A2C00FFF7E0FF0246BB68D31AFA689A42F7D880
:100A3C0000BF00BF1037BD4680BD00BF08000020BE
:100A4C0080B485B000AF78607B6803F00703FB606F
:100A5C000C4BDB68BB60BA684FF6FF031340BB60FE
:100A6C00FB681A02BB68134343F0BF6343F40033C3
:100A7C00BB60044ABB68D36000BF1437BD4680BC62
:100A8C00704700BF00ED00E080B400AF044BDB68A2
:100A9C001B0A03F007031846BD4680BC704700BF15
:100AAC0000ED00E080B483B000AF0346FB7197F912
:100ABC000730002B0BDBFB7903F01F02064997F97B
:100ACC0007305B09012000FA02F241F8232000BF35
:100ADC000C37BD4680BC704700E100E080B483B0A9
:100AEC0000AF03463960FB7197F90730002B0ADB26
:100AFC003B68DAB20C4997F907301201D2B20B44B9
:100B0C0083F800230AE03B68DAB20849FB7903F06A
:100B1C000F03043B1201D2B20B441A7600BF0C3700
:100B2C00BD4680BC704700BF00E100E000ED00E076
:100B3C0080B489B000AFF860B9607A60FB6803F0EC
:100B4C000703FB61FB69C3F10703042B28BF0423D4
:100B5C00BB61FB690433062B02D9FB69033B00E044
:100B6C0000237B614FF0FF32BB6902FA03F3DA43D7
:100B7C00BB681A407B699A404FF0FF317B6901FAE0
:100B8C0003F3D9437B680B40134318462437BD4607
:100B9C0080BC704780B582B000AF78607B68013B49
:100BAC00B3F1807F01D301230FE00A4A7B68013B3C
:100BBC0053600F214FF0FF30FFF790FF054B0022E1
:100BCC009A60044B07221A60002318460837BD466A
:100BDC0080BD00BF10E000E080B582B000AF78604F
:100BEC007868FFF72DFF00BF0837BD4680BD80B584
:100BFC0086B000AF0346B9607A60FB7300237B615B
:100C0C00FFF742FF78617A68B9687869FFF790FF5F
:100C1C00024697F90F3011461846FFF75FFF00BFE9
:100C2C001837BD4680BD80B582B000AF0346FB715E
:100C3C0097F907301846FFF735FF00BF0837BD4658
:100C4C0080BD80B582B000AF78607868FFF7A2FFF6
:100C5C00034618460837BD4680BD000080B48BB0F3
:100C6C0000AF7860396000237B6200233B6269E14E
:100C7C0001227B6A02FA03F3FB613B681B68FA6989
:100C8C001340BB61BA69FB699A4240F058813B68DA
:100C9C005B689A4A93425ED0984A934275D8984AB8
:100CAC00934258D0964A93426FD8964A934252D068
:100CBC00944A934269D8944A93424CD0924A9342B4
:100CCC0063D8924A934246D0904A93425DD8122BF5
:100CDC002AD8122B59D801A252F823F0630D000820
:100CEC003D0D00084F0D0008910D0008970D0008F0
:100CFC00970D0008970D0008970D0008970D000838
:100D0C00970D0008970D0008970D0008970D000827
:100D1C00970D0008970D0008970D0008970D000817
:100D2C00450D0008590D0008794A934213D02CE068
:100D3C003B68DB683B6229E03B68DB6804333B6261
:100D4C0024E03B68DB6808333B621FE03B68DB68F0
:100D5C000C333B621AE03B689B68002B02D10423E6
:100D6C003B6213E03B689B68012B05D108233B6277
:100D7C007B68FA691A6109E008233B627B68FA69AF
:100D8C005A6103E000233B6200E000BFBB69FF2B0C
:100D9C0001D87B6801E07B6804337B61BB69FF2B66
:100DAC0002D87B6A9B0002E07B6A083B9B003B619C
:100DBC007B691A680F213B6901FA03F3DB431A4084
:100DCC00396A3B6901FA03F31A437B691A603B6881
:100DDC005B6803F08053002B00F0B1804D4B9B6996
:100DEC004C4A43F0010393614A4B9B6903F00103A6
:100DFC00BB60BB68484A7B6A9B08023352F82330BD
:100E0C00FB607B6A03F003039B000F2202FA03F3DF
:100E1C00DB43FA681340FB607B68404A934213D073
:100E2C007B683F4A93420DD07B683E4A934207D081
:100E3C007B683D4A934201D1032306E0042304E07E
:100E4C00022302E0012300E000237A6A02F003028D
:100E5C0092009340FA681343FB602F497B6A9B080E
:100E6C000233FA6841F823203B685B6803F4801373
:100E7C00002B06D02D4B9A682C49BB6913438B6011
:100E8C0006E02A4B9A68BB69DB43284913408B6008
:100E9C003B685B6803F40013002B06D0234BDA6825
:100EAC002249BB691343CB6006E0204BDA68BB696F
:100EBC00DB431E491340CB603B685B6803F4003393
:100ECC00002B06D0194B5A681849BB6913434B6069
:100EDC0006E0164B5A68BB69DB43144913404B6060
:100EEC003B685B6803F48033002B21D00F4B1A68EE
:100EFC000E49BB6913430B6021E000BF00003210A8
:100F0C00000031100000221000002110000012100F
:100F1C0000001110001002400000014000080140C8
:100F2C00000C01400010014000140140000401407D
:100F3C000B4B1A68BB69DB43094913400B607B6A96
:100F4C0001337B623B681A687B6A22FA03F3002B3D
:100F5C007FF48EAE00BF00BF2C37BD4680BC7047FF
:100F6C000004014080B483B000AF78600B467B80F6
:100F7C0013467B707B78002B03D07A887B681A61D0
:100F8C0003E07B881A047B681A6100BF0C37BD46EE
:100F9C0080BC704780B485B000AF78600B467B8016
:100FAC007B68DB68FB607A88FB6813401A04FB687B
:100FBC00D9437B880B401A437B681A6100BF1437F6
:100FCC00BD4680BC7047000080B586B000AF78602D
:100FDC007B68002B01D1012372E27B681B6803F054
:100FEC000103002B00F08780924B5B6803F00C032D
:100FFC00042B0CD08F4B5B6803F00C03082B12D125
:10100C008C4B5B6803F48033B3F5803F0BD1894B79
:10101C001B6803F40033002B6CD07B685B68002BDF
:10102C0068D101234CE27B685B68B3F5803F06D145
:10103C00804B1B687F4A43F4803313602EE07B683F
:10104C005B68002B0CD17B4B1B687A4A23F48033F2
:10105C001360784B1B68774A23F4802313601DE0E0
:10106C007B685B68B3F5A02F0CD1724B1B68714A7F
:10107C0043F4802313606F4B1B686E4A43F4803338
:10108C0013600BE06B4B1B686A4A23F480331360CC
:10109C00684B1B68674A23F4802313607B685B688A
:1010AC00002B13D0FFF79EFC386108E0FFF79AFC89
:1010BC0002463B69D31A642B01D9032300E25D4B32
:1010CC001B6803F40033002BF0D014E0FFF78AFC0C
:1010DC00386108E0FFF786FC02463B69D31A642BA3
:1010EC0001D90323ECE1534B1B6803F40033002BB1
:1010FC00F0D100E000BF7B681B6803F00203002BFB
:10110C0063D04C4B5B6803F00C03002B0BD0494BAA
:10111C005B6803F00C03082B1CD1464B5B6803F493
:10112C008033002B16D1434B1B6803F00203002BBA
:10113C0005D07B681B69012B01D00123C0E13D4B1D
:10114C001B6823F0F8027B685B69DB0039491343A9
:10115C000B603AE07B681B69002B20D0364B0122D8
:10116C001A60FFF73FFC386108E0FFF73BFC0246D2
:10117C003B69D31A022B01D90323A1E12D4B1B6828
:10118C0003F00203002BF0D02A4B1B6823F0F8026B
:10119C007B685B69DB00274913430B6015E0264B2A
:1011AC0000221A60FFF71EFC386108E0FFF71AFCFA
:1011BC0002463B69D31A022B01D9032380E11D4B54
:1011CC001B6803F00203002BF0D17B681B6803F053
:1011DC000803002B3AD07B689B69002B19D0174B66
:1011EC0001221A60FFF7FEFB386108E0FFF7FAFBFB
:1011FC0002463B69D31A022B01D9032360E10D4B44
:10120C005B6A03F00203002BF0D0012000F09CFA83
:10121C001CE00A4B00221A60FFF7E4FB38610FE078
:10122C00FFF7E0FB02463B69D31A022B08D90323D4
:10123C0046E100BF001002400000424280044242DE
:10124C00924B5B6A03F00203002BE9D17B681B68AD
:10125C0003F00403002B00F0A6800023FB758B4BDE
:10126C00DB6903F08053002B0DD1884BDB69874A77
:10127C0043F08053D361854BDB6903F08053BB6033
:10128C00BB680123FB75824B1B6803F48073002B36
:10129C0018D17F4B1B687E4A43F480731360FFF7B1
:1012AC00A1FB386108E0FFF79DFB02463B69D31AAE
:1012BC00642B01D9032303E1754B1B6803F4807382
:1012CC00002BF0D07B68DB68012B06D16F4B1B6ABF
:1012DC006E4A43F0010313622DE07B68DB68002B40
:1012EC000CD16A4B1B6A694A23F001031362674BEA
:1012FC001B6A664A23F0040313621CE07B68DB68FC
:10130C00052B0CD1614B1B6A604A43F0040313623A
:10131C005E4B1B6A5D4A43F0010313620BE05B4BAF
:10132C001B6A5A4A23F001031362584B1B6A574A33
:10133C0023F0040313627B68DB68002B15D0FFF7E6
:10134C0051FB38610AE0FFF74DFB02463B69D31AAB
:10135C0041F28832934201D90323B1E04B4B1B6A13
:10136C0003F00203002BEED014E0FFF73BFB3861D7
:10137C000AE0FFF737FB02463B69D31A41F2883289
:10138C00934201D903239BE0404B1B6A03F00203F9
:10139C00002BEED1FB7D012B05D13C4BDB693B4A8D
:1013AC0023F08053D3617B68DB69002B00F08780CE
:1013BC00364B5B6803F00C03082B61D07B68DB6950
:1013CC00022B46D1334B00221A60FFF70BFB38611E
:1013DC0008E0FFF707FB02463B69D31A022B01D941
:1013EC0003236DE0294B1B6803F00073002BF0D135
:1013FC007B681B6AB3F5803F08D1244B5B6823F4F0
:10140C0000327B689B68214913434B601F4B5B6820
:10141C0023F474127B68196A7B685B6A0B431B4963
:10142C0013434B601B4B01221A60FFF7DBFA386148
:10143C0008E0FFF7D7FA02463B69D31A022B01D911
:10144C0003233DE0114B1B6803F00073002BF0D01D
:10145C0035E0104B00221A60FFF7C4FA386108E03F
:10146C00FFF7C0FA02463B69D31A022B01D90323BA
:10147C0026E0064B1B6803F00073002BF0D11EE036
:10148C007B68DB69012B07D1012319E000100240B6
:10149C0000700040600042420B4B5B68FB60FB68D5
:1014AC0003F480327B681B6A9A4206D1FB6803F412
:1014BC0070127B685B6A9A4201D0012300E0002322
:1014CC0018461837BD4680BD0010024080B584B068
:1014DC0000AF786039607B68002B01D10123D0E02C
:1014EC006A4B1B6803F007033A689A4210D9674BA2
:1014FC001B6823F0070265493B6813430B60634B81
:10150C001B6803F007033A689A4201D00123B8E044
:10151C007B681B6803F00203002B20D07B681B68E0
:10152C0003F00403002B05D0594B5B68584A43F475
:10153C00E06353607B681B6803F00803002B05D045
:10154C00534B5B68524A43F460535360504B5B6897
:10155C0023F0F0027B689B684D4913434B607B681A
:10156C001B6803F00103002B40D07B685B68012BE8
:10157C0007D1474B1B6803F40033002B15D1012313
:10158C007FE07B685B68022B07D1414B1B6803F043
:10159C000073002B09D1012373E03D4B1B6803F052
:1015AC000203002B01D101236BE0394B5B6823F064
:1015BC0003027B685B68364913434B60FFF712FAF2
:1015CC00F8600AE0FFF70EFA0246FB68D31A41F204
:1015DC008832934201D9032353E02D4B5B6803F00F
:1015EC000C027B685B689B009A42EBD1274B1B6813
:1015FC0003F007033A689A4210D2244B1B6823F07D
:10160C00070222493B6813430B60204B1B6803F015
:10161C0007033A689A4201D0012332E07B681B68C9
:10162C0003F00403002B08D0194B5B6823F4E06231
:10163C007B68DB68164913434B607B681B6803F0BF
:10164C000803002B09D0124B5B6823F460527B68B3
:10165C001B69DB000E4913434B6000F021F8024676
:10166C000B4B5B681B0903F00F030A49CB5C22FA96
:10167C0003F3094A1360094B1B681846FFF770F90E
:10168C00002318461037BD4680BD00BF0020024025
:10169C0000100240942900080000002004000020E3
:1016AC0080B487B000AF0023FB600023BB60002335
:1016BC007B6100237B6000233B611E4B5B68FB60FE
:1016CC00FB6803F00C03042B02D0082B03D027E09B
:1016DC00194B3B6127E0FB689B0C03F00F03174A87
:1016EC00D35C7B60FB6803F48033002B10D0114B70
:1016FC005B685B0C03F00103114AD35CBB607B6835
:10170C000D4A03FB02F2BB68B2FBF3F37B6104E00E
:10171C007B680C4A02FB03F37B617B693B6102E053
:10172C00054B3B6100BF3B6918461C37BD4680BC6E
:10173C00704700BF0010024000127A00A429000874
:10174C00B429000800093D0080B485B000AF786072
:10175C000A4B1B680A4AA2FB03235B0A7A6802FB4A
:10176C0003F3FB6000BFFB685A1EFA60002BF9D133
:10177C0000BF00BF1437BD4680BC7047000000207E
:10178C00D34D621080B582B000AF78607B68002BBF
:10179C0001D1012341E07B6893F83D30DBB2002B93
:1017AC0006D17B68002283F83C207868FEF7D2FFD4
:1017BC007B68022283F83D207B681A687B680433BF
:1017CC001946104600F0A6FA7B68012283F84620E1
:1017DC007B68012283F83E207B68012283F83F203E
:1017EC007B68012283F840207B68012283F841202A
:1017FC007B68012283F842207B68012283F8432016
:10180C007B68012283F844207B68012283F8452001
:10181C007B68012283F83D20002318460837BD461B
:10182C0080BD000080B485B000AF78607B6893F811
:10183C003D30DBB2012B01D0012332E07B68022268
:10184C0083F83D207B681B68184A93420ED07B6856
:10185C001B68B3F1804F09D07B681B68144A934214
:10186C0004D07B681B68134A934211D17B681B68B8
:10187C009B6803F00703FB60FB68062B10D07B68AA
:10188C001B681A687B681B6842F001021A6007E04B
:10189C007B681B681A687B681B6842F001021A603F
:1018AC00002318461437BD4680BC7047002C0140FD
:1018BC00000400400008004080B485B000AF7860A0
:1018CC007B6893F83D30DBB2012B01D001233AE069
:1018DC007B68022283F83D207B681B68DA687B6892
:1018EC001B6842F00102DA607B681B68184A93425D
:1018FC000ED07B681B68B3F1804F09D07B681B68E6
:10190C00144A934204D07B681B68134A934211D14A
:10191C007B681B689B6803F00703FB60FB68062B66
:10192C0010D07B681B681A687B681B6842F0010248
:10193C001A6007E07B681B681A687B681B6842F0BA
:10194C0001021A60002318461437BD4680BC70474C
:10195C00002C0140000400400008004080B584B019
:10196C0000AF78607B681B68DB68FB607B681B687A
:10197C001B69BB60BB6803F00203002B20D0FB6823
:10198C0003F00203002B1BD07B681B686FF0020274
:10199C001A617B6801221A777B681B689B6903F0CC
:1019AC000303002B03D0786800F098F905E0786801
:1019BC0000F08BF9786800F09AF97B6800221A77AE
:1019CC00BB6803F00403002B20D0FB6803F0040376
:1019DC00002B1BD07B681B686FF004021A617B68BC
:1019EC0002221A777B681B689B6903F44073002BF7
:1019FC0003D0786800F072F905E0786800F065F9BA
:101A0C00786800F074F97B6800221A77BB6803F0E1
:101A1C000803002B20D0FB6803F00803002B1BD01D
:101A2C007B681B686FF008021A617B6804221A77C6
:101A3C007B681B68DB6903F00303002B03D0786819
:101A4C0000F04CF905E0786800F03FF9786800F098
:101A5C004EF97B6800221A77BB6803F01003002B49
:101A6C0020D0FB6803F01003002B1BD07B681B6895
:101A7C006FF010021A617B6808221A777B681B686A
:101A8C00DB6903F44073002B03D0786800F026F96F
:101A9C0005E0786800F019F9786800F028F97B689F
:101AAC0000221A77BB6803F00103002B0CD0FB68F3
:101ABC0003F00103002B07D07B681B686FF0010259
:101ACC001A617868FEF736FCBB6803F08003002BC4
:101ADC000CD0FB6803F08003002B07D07B681B68DD
:101AEC006FF080021A61786800F07FFABB6803F02F
:101AFC004003002B0CD0FB6803F04003002B07D0F5
:101B0C007B681B686FF040021A61786800F0F8F887
:101B1C00BB6803F02003002B0CD0FB6803F0200300
:101B2C00002B07D07B681B686FF020021A61786865
:101B3C0000F052FA00BF1037BD4680BD80B584B0AE
:101B4C0000AF786039600023FB737B6893F83C30FE
:101B5C00012B01D10223B4E07B68012283F83C20E5
:101B6C007B68022283F83D207B681B689B68BB6006
:101B7C00BB6823F07703BB60BB6823F47F43BB6077
:101B8C007B681B68BA689A603B681B68B3F5005F9A
:101B9C003ED0B3F5005F00F28780B3F5805F00F0B4
:101BAC008680B3F5805F7FD8702B1AD0702B7BD8D2
:101BBC00602B50D0602B77D8502B3CD0502B73D847
:101BCC00402B58D0402B6FD8302B64D0302B6BD897
:101BDC00202B60D0202B67D8002B5CD0102B5AD038
:101BEC0062E07B6818683B6899683B685A683B6898
:101BFC00DB6800F074F97B681B689B68BB60BB6892
:101C0C0043F07703BB607B681B68BA689A604FE04F
:101C1C007B6818683B6899683B685A683B68DB6866
:101C2C0000F05DF97B681B689A687B681B6842F45E
:101C3C0080429A603CE07B6818683B6859683B6856
:101C4C00DB681A4600F0D4F87B681B6850211846F4
:101C5C0000F02BF92CE07B6818683B6859683B68EE
:101C6C00DB681A4600F0F2F87B681B6860211846A6
:101C7C0000F01BF91CE07B6818683B6859683B68EE
:101C8C00DB681A4600F0B4F87B681B6840211846E4
:101C9C0000F00BF90CE07B681A683B681B6819466E
:101CAC00104600F002F903E00123FB7300E000BFD3
:101CBC007B68012283F83D207B68002283F83C205E
:101CCC00FB7B18461037BD4680BD80B483B000AF97
:101CDC00786000BF0C37BD4680BC704780B483B0C1
:101CEC0000AF786000BF0C37BD4680BC704780B435
:101CFC0083B000AF786000BF0C37BD4680BC704726
:101D0C0080B483B000AF786000BF0C37BD4680BC98
:101D1C007047000080B485B000AF786039607B6894
:101D2C001B68FB607B682F4A93420BD07B68B3F136
:101D3C00804F07D07B682C4A934203D07B682B4A98
:101D4C00934208D1FB6823F07003FB603B685B682F
:101D5C00FA681343FB607B68224A93420BD07B6882
:101D6C00B3F1804F07D07B681F4A934203D07B6846
:101D7C001E4A934208D1FB6823F44073FB603B6816
:101D8C00DB68FA681343FB60FB6823F080023B6856
:101D9C005B691343FB607B68FA681A603B689A685E
:101DAC007B68DA623B681A687B689A627B680D4ACA
:101DBC00934203D13B681A697B681A637B680122E2
:101DCC005A617B681B6903F00103002B05D07B680B
:101DDC001B6923F001027B681A6100BF1437BD46F2
:101DEC0080BC7047002C01400004004000080040FB
:101DFC0080B487B000AFF860B9607A60FB681B6A8A
:101E0C007B61FB681B6A23F00102FB681A62FB68AA
:101E1C009B693B613B6923F0F0033B617B681B01D1
:101E2C003A6913433B617B6923F00A037B617A694E
:101E3C00BB6813437B61FB683A699A61FB687A69FA
:101E4C001A6200BF1C37BD4680BC704780B487B097
:101E5C0000AFF860B9607A60FB681B6A7B61FB6855
:101E6C001B6A23F01002FB681A62FB689B693B61DA
:101E7C003B6923F470433B617B681B033A69134352
:101E8C003B617B6923F0A0037B61BB681B017A6912
:101E9C0013437B61FB683A699A61FB687A691A6241
:101EAC0000BF1C37BD4680BC704780B485B000AF06
:101EBC00786039607B689B68FB60FB6823F070037B
:101ECC00FB603A68FB68134343F00703FB607B68D5
:101EDC00FA689A6000BF1437BD4680BC704780B466
:101EEC0087B000AFF860B9607A603B60FB689B68B4
:101EFC007B617B6923F47F437B613B681A027B68BF
:101F0C001A43BB6813437A6913437B61FB687A6994
:101F1C009A6000BF1C37BD4680BC704780B485B04A
:101F2C0000AF786039607B6893F83C30012B01D1AD
:101F3C00022346E07B68012283F83C207B68022266
:101F4C0083F83D207B681B685B68FB607B681B68C3
:101F5C009B68BB60FB6823F07003FB603B681B68ED
:101F6C00FA681343FB607B681B68FA685A607B68ED
:101F7C001B68164A93420ED07B681B68B3F1804FE6
:101F8C0009D07B681B68124A934204D07B681B689B
:101F9C00104A93420CD1BB6823F08003BB603B68B2
:101FAC005B68BA681343BB607B681B68BA689A604D
:101FBC007B68012283F83D207B68002283F83C205B
:101FCC00002318461437BD4680BC7047002C0140D6
:101FDC00000400400008004080B483B000AF78607B
:101FEC0000BF0C37BD4680BC704780B483B000AFD7
:101FFC00786000BF0C37BD4680BC70470EB46FF0E4
:10200C00004110B500249DB01FAB029006900791C3
:10201C0004910948094953F8042B0591006802A959
:10202C0001931B9400F092F9029B1C701DB0BDE84B
:10203C00104003B0704700BF0C0000200802FFFFE7
:10204C0003460244934200D1704703F8011BF9E7A1
:10205C00014B1868704700BF0C00002070B50026BB
:10206C000C4D0D4C641BA410A64209D100F076FC5B
:10207C0000260A4D0A4C641BA410A64205D170BD63
:10208C0055F8043B98470136EEE755F8043B984762
:10209C000136F2E7EC290008EC290008EC290008CD
:1020AC00F02900087047704738B50546002940D024
:1020BC0051F8043C0C1F002BB8BFE41800F0DEF8FC
:1020CC001C4A136833B9636014602846BDE8384075
:1020DC0000F0DAB8A34208D9206821188B4201BF5E
:1020EC0019685B6809182160EDE71A465B680BB14B
:1020FC00A342FAD911685018A0420BD120680144B0
:10210C00501883421160E0D118685B680844106075
:10211C005360DAE702D90C232B60D6E7206821182C
:10212C008B4201BF19685B680918216063605460B9
:10213C00CBE738BD6C02002070B50F4E0C463168F1
:10214C00054611B900F0A8FB30602146284600F086
:10215C00A3FB431C03D14FF0FF34204670BDC41CBD
:10216C0024F00304A042F8D0211A284600F094FB76
:10217C000130F2D1EFE700BF680200202DE9F843EF
:10218C00CD1C25F0030508350C2D38BF0C25002D72
:10219C00064601DBA94204D90C2333600020BDE8BC
:1021AC00F883DFF8D48000F069F8D8F800301C46CA
:1021BC0044BB29463046FFF7BFFF431C044658D1A9
:1021CC00D8F800402746002F43D1002C4BD0236871
:1021DC003946304604EB030900F05EFB814542D1E1
:1021EC00216830466D1A2946FFF7A6FF01303AD018
:1021FC0023682B442360D8F800305A6862BBC8F8B7
:10220C0000700FE02268521B20D40B2A17D96119D9
:10221C00A342256018BF5960636808BFC8F8001056
:10222C0062514B60304600F02FF804F10B00231D77
:10223C0020F00700C21A1CBF1B1AA350AFE762683C
:10224C00A3420CBFC8F800205A60EBE72346646831
:10225C00AEE73C467F68B6E71A465B68A342FBD103
:10226C0000235360DEE70C233046336000F00CF89B
:10227C0094E70560D6E700BF6C0200200148FFF729
:10228C0011BF00BF640200200148FFF70CBF00BF64
:10229C00640200202DE9F0471F468E688246BE423C
:1022AC000C4690460B682DD8B1F90C2012F4906FA7
:1022BC0026D06569096905EB4505A3EB010905EB1A
:1022CC00D5757B1C4B446D109D4238BF1D46530584
:1022DC0027D52946FFF752FF064660B34A462169C7
:1022EC0000F0F8FAA38923F4906343F08003A381F0
:1022FC0026614E4426603E466561A5EB0905A56046
:10230C00BE4200D93E4632464146206800F0AAFA49
:10231C000020A3689B1BA360236833442360BDE8A3
:10232C00F0872A4600F0E4FA06460028E0D1504631
:10233C002169FFF7B9FE0C23CAF80030A3894FF0CE
:10234C00FF3043F04003A381E9E700002DE9F04F93
:10235C0098468B8907461B060D4614469DB010D532
:10236C000B6973B94021FFF709FF2860286130B968
:10237C000C233B604FF0FF301DB0BDE8F08F4023C5
:10238C006B610023099320238DF8293030234FF003
:10239C000109CDF80C80DFF898818DF82A3023469E
:1023AC009A4613F8012B0AB1252AF9D1BAEB040B82
:1023BC000BD05B46224629463846FFF76BFF0130AF
:1023CC0000F0A780099A5A4409929AF80030002B21
:1023DC0000F09F8000234FF0FF32CDE905230AF176
:1023EC00010A049307938DF853301A93544605222F
:1023FC0014F8011B4E4800F05FFA049AD8B9D006C5
:10240C0044BF20238DF85330110744BF2B238DF884
:10241C0053309AF800302A2B15D0544600204FF038
:10242C000A0C079A214611F8013B303B092B4BD97A
:10243C00B0B1079214E0A0EB080309FA03F31343BD
:10244C00A2460493D2E7039B191D1B680391002B32
:10245C00BBBF5B4242F0020207930793B8BF0492E2
:10246C0023782E2B0AD163782A2B32D1039B02348A
:10247C001A1D1B68039243EAE3730593DFF8B4A0BB
:10248C0003225046217800F017FA38B14022049B01
:10249C00A0EB0A00824013430134049314F8011B8F
:1024AC00062225488DF8281000F006FA002836D0B0
:1024BC00224B1BBB039B073323F007030833039307
:1024CC00099B334409936AE70C4601200CFB02324A
:1024DC00A8E700234FF00A0C194601340593204657
:1024EC0010F8012B303A092A03D9002BC6D00591DC
:1024FC00C4E7044601230CFB0121F0E703AB009376
:10250C002A4638460E4B04A9AFF30080421C0646FF
:10251C00D6D1AB895B063FF52DAF09982CE703AB01
:10252C0000932A463846064B04A900F07DF8EDE7E7
:10253C00B6290008BC290008C029000800000000CA
:10254C00A12200082DE9F047164698468A680B69C7
:10255C0007469342B8BF1346336091F843200C46AC
:10256C00DDF820900AB1013333602368990642BF2D
:10257C00336802333360256815F0060506D104F183
:10258C00190AE36832689B1AAB422BDC94F843308F
:10259C002268003B18BF0123920630D441463846CE
:1025AC0004F14302C847013023D02368226903F0A9
:1025BC000603042B14BF002533684FF0000608BF38
:1025CC00E56804F11A0408BFED1A54F8123C08BF70
:1025DC0025EAE5759342C4BF9B1AED18B5421AD192
:1025EC00002008E00123524641463846C8470130D6
:1025FC0003D14FF0FF30BDE8F0870135C1E7302043
:10260C00E11881F843005A1C94F845102244023317
:10261C0082F84310C2E70123224641463846C84798
:10262C000130E6D00136D9E72DE9FF470F7E914600
:10263C00782F80460C469A460C9E01F1430207D82F
:10264C00622F0AD8002F00F0D180582F00F0B880EC
:10265C0004F1420684F842703AE0A7F16303152BAB
:10266C00F6D801A151F823F0CD260008E126000888
:10267C005D2600085D2600085D2600085D26000822
:10268C00E12600085D2600085D2600085D2600088E
:10269C005D260008DF2700080B2700089927000893
:1026AC005D2600085D260008012800085D2600084C
:1026BC000B2700085D2600085D260008A1270008EE
:1026CC0033681A1D1B68326004F1420684F84230EC
:1026DC0001239CE033682068191D3160060601D582
:1026EC001D6803E04506FBD5B3F90050002D03DA55
:1026FC002D236D4284F843300A23584811E0216899
:10270C003368080653F8045B02D4490648BFADB2DF
:10271C006F2F336014BF0A2308235048002184F81C
:10272C0043106668002EA66005DB21682E4321F05D
:10273C00040121604BD01646B5FBF3F103FB115796
:10274C00C75D06F8017D2F46BB420D46F4D9082B18
:10275C000BD12368DF0708D5236961689942DEBF76
:10276C00302306F8013C06F1FF36921B22614B46E2
:10277C0021464046CDF800A003AAFFF7E3FE013046
:10278C004AD14FF0FF3004B0BDE8F087236843F026
:10279C00200323607827324884F845702368316819
:1027AC001F0651F8045B02D45F0648BFADB231601E
:1027BC00D90744BF43F0200323601DB11023ADE7BC
:1027CC002648E9E7236823F020032360F6E7164642
:1027DC00BDE733682568181D616930602E061B68DB
:1027EC0001D5196002E06806FBD519800023164656
:1027FC002361BCE7336800211A1D32601E686268D1
:10280C00304600F059F808B1801B606063682361A2
:10281C00002384F84330AAE73246494640462369F0
:10282C00D0470130ADD023689B0713D4E068039BDD
:10283C009842B8BF1846A6E701233246494640469F
:10284C00D04701309DD00135E36803995B1AAB4248
:10285C00F2DCEBE7002504F11906F5E7C7290008BF
:10286C00D8290008884210B501EB020402D9844231
:10287C00234607D8431EA14208D011F8012B03F8B8
:10288C00012FF8E7014602448A4200D110BD13F82B
:10289C00014D02F8014DF7E738B50023054D04460C
:1028AC0008462B60FDF7E4FF431C02D12B6803B1F3
:1028BC00236038BD60020020034610B5C9B2024443
:1028CC009342184601D1002003E0047801338C4276
:1028DC00F6D110BD0A44914200F1FF3300D170478C
:1028EC0010B511F8014B914203F8014FF9D110BD0D
:1028FC002DE9F041074614460D4621B91146BDE8B5
:10290C00F041FFF73BBC2AB9FFF7CEFB2546284622
:10291C00BDE8F08100F01AF88442064602D8B4EB08
:10292C00500FF4D821463846FFF728FC804608B9EA
:10293C004546ECE7B4422246294628BF3246FFF70B
:10294C00C9FF29463846FFF7AFFBF1E751F8043CC5
:10295C00181F002BBCBF0B58C0187047F8B500BF30
:10296C00F8BC08BC9E467047F8B500BFF8BC08BC64
:04297C009E467047BC
:10298000465245512E203D2000000000256C642059
:10299000487A00000000000000000000010203046B
:1029A0000607080902030405060708090A0B0C0DAF
:1029B0000E0F10100102232D302B2000686C4C00EC
:1029C000656667454647003031323334353637382F
:1029D000394142434445460030313233343536378D
:0C29E00038396162636465660000000025
:0429EC0031010008AD
:0429F0000D010008CD
:1029F40000127A0010000000010000001000002006
:102A0400000000002801002090010020F8010020AF
:102A140000000000000000000000000000000000B2
:102A240000000000000000000000000000000000A2
:102A34000000000000000000000000000000000092
:0C2A440000000000000000000000000086
:04000005080008F5F2
:00000001FF
