:020000040800F2
:1000000000500020A5060008C1050008C905000829
:10001000D1050008D9050008E1050008000000002E
:10002000000000000000000000000000E9050008DA
:10003000F505000800000000010600080D06000894
:10004000ED060008ED060008ED060008ED060008C4
:10005000ED060008ED060008ED060008ED060008B4
:10006000ED060008ED060008ED0600081906000878
:10007000ED060008ED060008ED060008ED06000894
:10008000ED060008ED060008ED060008ED06000884
:10009000ED060008ED060008ED060008ED06000874
:1000A000ED060008ED060008ED060008ED06000864
:1000B000ED060008ED060008ED060008ED06000854
:1000C000ED060008ED060008ED060008ED06000844
:1000D000ED060008ED060008ED060008ED06000834
:1000E000ED060008ED060008ED060008000000001F
:1000F0000000000000000000000000000000000000
:0C01000000000000000000005FF808F1A3
:10010C0010B5054C237833B9044B13B10448AFF345
:10011C0000800123237010BD5C0000200000000053
:10012C009032000808B5034B1BB103490348AFF3E9
:10013C00008008BD00000000600000209032000824
:10014C00034613F8012B002AFBD1181A013870470B
:10015C0080B584B000AF00F0C5FA00F047F800F0AD
:10016C001BF900F0FBF800F091F800F0CDF81A48FC
:10017C0000F00AFF40221949174800F011FC002337
:10018C00FB600023BB600AE0144ABB6832F81330F2
:10019C001A46FB681344FB60BB680133BB60BB6849
:1001AC003F2BF1DDFB689B09FB80FB881A460C4951
:1001BC000C4802F0B7FB0B48FFF7C2FF03469AB29C
:1001CC004FF4FA730749084802F0D8F94FF47A70E3
:1001DC0000F0EAFAD3E700BF7800002034010020D9
:1001EC00A8320008B4010020EC00002080B594B0C7
:1001FC0000AF07F1280328220021184602F0B4FBB7
:10020C0007F1140300221A605A609A60DA601A61CE
:10021C003B1D00221A605A609A60DA600123BB62AF
:10022C004FF48033FB6200237B6407F128031846EC
:10023C0001F0D8FB0346002B01D000F0CFF80F23C0
:10024C007B610123BB610023FB6100233B62002324
:10025C007B6207F114030021184601F045FE0346AA
:10026C00002B01D000F0BAF802237B600023FB6066
:10027C003B1D184601F0C6FF0346002B01D000F0D1
:10028C00ADF800BF5037BD4680BD000080B584B0CE
:10029C0000AF3B1D00221A605A609A60184B194A35
:1002AC001A60174B00229A60154B01221A73144BDB
:1002BC0000221A75124B4FF46022DA61104B0022A7
:1002CC005A600F4B01221A610D4800F091FA034657
:1002DC00002B01D000F082F800237B600123BB606F
:1002EC000023FB603B1D1946054800F053FC0346F8
:1002FC00002B01D000F072F800BF1037BD4680BD56
:10030C00780000200024014080B500AF114B124A48
:10031C001A60104B4FF496425A600E4B00229A60B2
:10032C000C4B0022DA600B4B00221A61094B0C2299
:10033C005A61084B00229A61064B0022DA6105488B
:10034C0002F0CCF80346002B01D000F047F800BFB8
:10035C0080BD00BFEC0000200038014080B582B0A9
:10036C0000AF0C4B5B690B4A43F001035361094B23
:10037C005B6903F001037B607B68002200210B208A
:10038C0000F087FF0B2000F0A0FF00BF0837BD4630
:10039C0080BD00BF0010024080B483B000AF0E4B94
:1003AC009B690D4A43F0200393610B4B9B6903F04F
:1003BC0020037B607B68084B9B69074A43F004036E
:1003CC009361054B9B6903F004033B603B6800BFE2
:1003DC000C37BD4680BC70470010024080B400AFA3
:1003EC0072B600BF00BFFDE780B485B000AF154BFF
:1003FC009B69144A43F001039361124B9B6903F010
:10040C000103BB60BB680F4BDB690E4A43F08053A2
:10041C00D3610C4BDB6903F080537B607B680A4B28
:10042C005B68FB60FB6823F0E063FB60FB6843F0F8
:10043C000073FB60044AFB68536000BF1437BD4671
:10044C0080BC7047001002400000014080B588B0AD
:10045C0000AF786007F1100300221A605A609A60AE
:10046C00DA607B681B68284A934249D1274B9B6909
:10047C00264A43F400739361244B9B6903F4007385
:10048C00FB60FB68214B9B69204A43F0040393619A
:10049C001E4B9B6903F00403BB60BB6801233B61EB
:1004AC0003237B6107F110031946194801F016F973
:1004BC00184B194A1A60174B00225A60154B002230
:1004CC009A60144B8022DA60124B4FF480721A61DE
:1004DC00104B4FF480625A610E4B20229A610D4BE7
:1004EC000022DA610B4800F00BFF0346002B01D011
:1004FC00FFF774FF7B68074A1A62064A7B685362EF
:10050C0000BF2037BD4680BD0024014000100240D2
:10051C0000080140A80000200800024080B588B007
:10052C0000AF786007F1100300221A605A609A60DD
:10053C00DA607B681B681C4A934231D11B4B9B6968
:10054C001A4A43F480439361184B9B6903F480432C
:10055C00FB60FB68154B9B69144A43F004039361E1
:10056C00124B9B6903F00403BB60BB684FF4007330
:10057C003B6102237B610323FB6107F110031946E6
:10058C000B4801F0ABF84FF480633B6100237B61B7
:10059C000023BB6107F110031946054801F09EF8D2
:1005AC0000BF2037BD4680BD00380140001002401E
:1005BC000008014080B400AF00BFFDE780B400AF7D
:1005CC0000BFFDE780B400AF00BFFDE780B400AF13
:1005DC0000BFFDE780B400AF00BFFDE780B400AF03
:1005EC0000BFBD4680BC704780B400AF00BFBD46A5
:1005FC0080BC704780B400AF00BFBD4680BC704764
:10060C0080B500AF00F0B4F800BF80BD80B500AF7E
:10061C00024800F02FFF00BF80BD00BFA8000020E3
:10062C0080B586B000AF7860144A154BD31A7B6145
:10063C007B693B61134B1B68002B02D1114B124A97
:10064C001A60104B1A687B6813443A699A4207D2B5
:10065C0002F092F903460C221A604FF0FF3309E0C6
:10066C00084B1B68FB60074B1A687B681344054AF0
:10067C001360FB6818461837BD4680BD005000203B
:10068C0000040000C80100201803002080B400AF53
:10069C0000BFBD4680BC7047FFF7F8FF0B480C4904
:1006AC000C4A002302E0D458C4500433C4188C42C2
:1006BC00F9D3094A094C002301E013600432A24229
:1006CC00FBD302F05FF9FFF743FD704700000020F9
:1006DC005C0000203C3300085C0000201803002064
:1006EC00FEE7000080B500AF084B1B68074A43F0DB
:1006FC0010031360032000F0C1FD0F2000F008F878
:10070C00FFF772FE0023184680BD00BF0020024098
:10071C0080B582B000AF7860124B1A68124B1B7810
:10072C0019464FF47A73B3FBF1F3B2FBF3F31846AB
:10073C0000F0D9FD0346002B01D001230EE07B68AD
:10074C000F2B0AD8002279684FF0FF3000F0A1FD82
:10075C00064A7B681360002300E001231846083723
:10076C00BD4680BD000000200800002004000020D1
:10077C0080B400AF054B1B781A46054B1B6813441D
:10078C00034A136000BFBD4680BC704708000020C0
:10079C00CC01002080B400AF024B1B681846BD464C
:1007AC0080BC7047CC01002080B584B000AF78606D
:1007BC00FFF7F0FFB8607B68FB60FB68B3F1FF3FAD
:1007CC0005D00A4B1B781A46FB681344FB6000BF2C
:1007DC00FFF7E0FF0246BB68D31AFA689A42F7D8D3
:1007EC0000BF00BF1037BD4680BD00BF0800002011
:1007FC0080B586B000AF78600023FB7500233B61A9
:10080C000023BB600023FB607B68002B01D101231C
:10081C00BEE07B689B68002B7B689B6A002B09D130
:10082C007B680022DA627B68002283F824207868D7
:10083C00FFF70CFE786800F0FFFA0346FB757B6847
:10084C009B6A03F01003002B40F09980FB7D002B7A
:10085C0040F095807B689B6A23F4885323F0020355
:10086C0043F002027B689A627B685A687B68DB699A
:10087C001A437B681B7B5B001343BA681343BB6052
:10088C007B689B68B3F5807F03D07B689B68012BEA
:10089C0002D14FF4807300E000233A6913433B61AB
:1008AC007B681B7D012B19D17B681B7B002B09D12D
:1008BC007B689B69013B5A033B69134343F4006318
:1008CC003B610BE07B689B6A43F020027B689A6279
:1008DC007B68DB6A43F001027B68DA627B681B6829
:1008EC005B6823F469417B681B683A690A435A6068
:1008FC007B681B689A68284B13407A681268B96841
:10090C000B4393607B689B68B3F5807F03D07B6857
:10091C009B68012B04D17B681B69013B1B05FB60A9
:10092C007B681B68DB6A23F470017B681B68FA68C0
:10093C000A43DA627B681B689A68184B1340BA68E2
:10094C009A420BD17B680022DA627B689B6A23F0A7
:10095C00030343F001027B689A6218E07B689B6A90
:10096C0023F0120343F010027B689A627B68DB6A07
:10097C0043F001027B68DA620123FB7507E07B68B8
:10098C009B6A43F010027B689A620123FB75FB7D26
:10099C0018461837BD4680BDFDF7E1FFFE0E1FFF60
:1009AC0080B586B000AFF860B9607A600023FB7543
:1009BC00FB681B68644A934204D0FB681B68634A5B
:1009CC00934206D1604B5B6803F47023002B40F01C
:1009DC00B380FB6893F82430012B01D10223AEE0E5
:1009EC00FB68012283F82420F86800F0CBF9034659
:1009FC00FB75FB7D002B40F09A80FB689B6A23F40F
:100A0C00706323F0010343F48072FB689A62FB6805
:100A1C001B684E4A934205D14B4B5B6803F4702321
:100A2C00002B15D1FB689B6A23F48012FB689A6239
:100A3C00FB681B685B6803F48063002B26D0FB68A3
:100A4C009B6A23F4405343F48052FB689A621DE086
:100A5C00FB689B6A43F48012FB689A62FB681B6814
:100A6C00394A934204D0FB681B68384A93420DD133
:100A7C00354B5B6803F48063002B07D0FB689B6AE3
:100A8C0023F4405343F48052FB689A62FB689B6AE0
:100A9C0003F48053002B06D0FB68DB6A23F00602BC
:100AAC00FB68DA6202E0FB680022DA62FB68002273
:100ABC0083F82420FB681B6A254A9A62FB681B6A30
:100ACC00244ADA62FB681B6A234A1A63FB681B68B8
:100ADC006FF002021A60FB681B689A68FB681B685F
:100AEC0042F480729A60FB68186AFB681B684C338E
:100AFC001946BA687B6800F05DFCFB681B689B6854
:100B0C0003F46023B3F5602F08D1FB681B689A6867
:100B1C00FB681B6842F4A0029A600FE0FB681B683C
:100B2C009A68FB681B6842F480129A6006E0FB68C6
:100B3C00002283F8242001E00123FB75FB7D18467D
:100B4C001837BD4680BD00BF00240140002801407D
:100B5C00C70E0008430F00085F0F000880B483B075
:100B6C0000AF786000BF0C37BD4680BC704780B4C6
:100B7C0083B000AF786000BF0C37BD4680BC7047B7
:100B8C0080B483B000AF786000BF0C37BD4680BC2A
:100B9C007047000080B485B000AF786039600023E6
:100BAC00FB730023BB607B6893F82430012B01D1CD
:100BBC000223DCE07B68012283F824203B685B681D
:100BCC00062B1CD87B681B68596B3B685A6813460C
:100BDC009B001344053B1F2202FA03F3DB4319402D
:100BEC003B6818683B685A6813469B001344053BE6
:100BFC0000FA03F27B681B680A435A633CE03B68CB
:100C0C005B680C2B1CD87B681B68196B3B685A689B
:100C1C0013469B001344233B1F2202FA03F3DB43CE
:100C2C0019403B6818683B685A6813469B0013448C
:100C3C00233B00FA03F27B681B680A431A631BE030
:100C4C007B681B68D96A3B685A6813469B0013443F
:100C5C00413B1F2202FA03F3DB4319403B6818683F
:100C6C003B685A6813469B001344413B00FA03F25D
:100C7C007B681B680A43DA623B681B68092B1CD92A
:100C8C007B681B68D9683B681A6813465B00134481
:100C9C001E3B072202FA03F3DB4319403B689868BA
:100CAC003B681A6813465B0013441E3B00FA03F2C0
:100CBC007B681B680A43DA6019E07B681B6819695A
:100CCC003B681A6813465B001344072202FA03F3CD
:100CDC00DB4319403B6898683B681A6813465B0015
:100CEC00134400FA03F27B681B680A431A613B68E1
:100CFC001B68102B03D03B681B68112B32D17B680F
:100D0C001B681D4A934225D17B681B689B6803F4C2
:100D1C000003002B26D17B681B689A687B681B68D4
:100D2C0042F400029A603B681B68102B1AD1134BDB
:100D3C001B68134AA2FB03239A0C13469B00134413
:100D4C005B00BB6002E0BB68013BBB60BB68002B77
:100D5C00F9D107E07B689B6A43F020027B689A62BA
:100D6C000123FB737B68002283F82420FB7B18464D
:100D7C001437BD4680BC70470024014000000020A1
:100D8C0083DE1B4380B584B000AF78600023FB602A
:100D9C000023BB607B681B689B6803F00103012B7D
:100DAC0040D07B681B689A687B681B6842F0010224
:100DBC009A601F4B1B681F4AA2FB03239B0CBB6052
:100DCC0002E0BB68013BBB60BB68002BF9D1FFF7AD
:100DDC00E1FCF8601FE0FFF7DDFC0246FB68D31A6C
:100DEC00022B18D97B681B689B6803F00103012B4D
:100DFC0011D07B689B6A43F010027B689A627B6817
:100E0C00DB6A43F001027B68DA627B68002283F8BC
:100E1C002420012307E07B681B689B6803F0010317
:100E2C00012BD8D1002318461037BD4680BD00BF1A
:100E3C000000002083DE1B4380B584B000AF7860D7
:100E4C000023FB607B681B689B6803F00103012B8C
:100E5C002ED17B681B689A687B681B6822F00102A4
:100E6C009A60FFF797FCF8601BE0FFF793FC0246D3
:100E7C00FB68D31A022B14D97B681B689B6803F0A0
:100E8C000103012B0DD17B689B6A43F010027B6838
:100E9C009A627B68DB6A43F001027B68DA620123A9
:100EAC0007E07B681B689B6803F00103012BDCD017
:100EBC00002318461037BD4680BD80B584B000AF06
:100ECC0078607B685B6AFB60FB689B6A03F050038D
:100EDC00002B27D1FB689B6A43F40072FB689A6273
:100EEC00FB681B689B6803F46023B3F5602F15D176
:100EFC00FB681B7B002B11D1FB689B6A23F480726F
:100F0C00FB689A62FB689B6A03F48053002B05D143
:100F1C00FB689B6A43F00102FB689A62F868FFF772
:100F2C001DFE04E0FB681B6A1B6B7868984700BFCA
:100F3C001037BD4680BD80B584B000AF78607B684B
:100F4C005B6AFB60F868FFF712FE00BF1037BD4606
:100F5C0080BD80B584B000AF78607B685B6AFB6055
:100F6C00FB689B6A43F04002FB689A62FB68DB6A91
:100F7C0043F00402FB68DA62F868FFF701FE00BF79
:100F8C001037BD4680BD000090B587B000AF7860CB
:100F9C000023FB750023FB607B6893F82430012B46
:100FAC0001D1022397E07B68012283F82420786822
:100FBC00FFF742FF0346FB757868FFF7E3FE034635
:100FCC00FB75FB7D002B40F081807B689B6A23F4D2
:100FDC00885323F0020343F002027B689A62404B71
:100FEC001C68022001F0C4F90346B4FBF3F35B0068
:100FFC00FB6002E0FB68013BFB60FB68002BF9D156
:10100C007B681B689A687B681B6842F008029A60D0
:10101C00FFF7C0FB38611BE0FFF7BCFB02463B69E6
:10102C00D31A0A2B14D97B681B689B6803F008033E
:10103C00002B0DD07B689B6A23F0120343F0100247
:10104C007B689A627B68002283F82420012342E0AB
:10105C007B681B689B6803F00803002BDCD17B6862
:10106C001B689A687B681B6842F004029A60FFF761
:10107C0091FB38611BE0FFF78DFB02463B69D31AED
:10108C000A2B14D97B681B689B6803F00403002BA4
:10109C000DD07B689B6A23F0120343F010027B682F
:1010AC009A627B68002283F82420012313E07B687A
:1010BC001B689B6803F00403002BDCD17B689B6AE4
:1010CC0023F0030343F001027B689A627B680022E1
:1010DC0083F82420FB7D18461C37BD4690BD00BF0D
:1010EC000000002080B485B000AF78607B6803F00E
:1010FC000703FB600C4BDB68BB60BA684FF6FF0361
:10110C001340BB60FB681A02BB68134343F0BF6318
:10111C0043F40033BB60044ABB68D36000BF143790
:10112C00BD4680BC704700BF00ED00E080B400AF4E
:10113C00044BDB681B0A03F007031846BD4680BC52
:10114C00704700BF00ED00E080B483B000AF0346F1
:10115C00FB7197F90730002B0BDBFB7903F01F02B7
:10116C00064997F907305B09012000FA02F241F8B1
:10117C00232000BF0C37BD4680BC704700E100E067
:10118C0080B483B000AF03463960FB7197F9073028
:10119C00002B0ADB3B68DAB20C4997F907301201D5
:1011AC00D2B20B4483F800230AE03B68DAB2084958
:1011BC00FB7903F00F03043B1201D2B20B441A76F5
:1011CC0000BF0C37BD4680BC704700BF00E100E09B
:1011DC0000ED00E080B489B000AFF860B9607A60CF
:1011EC00FB6803F00703FB61FB69C3F10703042BE6
:1011FC0028BF0423BB61FB690433062B02D9FB69AE
:10120C00033B00E000237B614FF0FF32BB6902FA25
:10121C0003F3DA43BB681A407B699A404FF0FF3105
:10122C007B6901FA03F3D9437B680B4013431846DF
:10123C002437BD4680BC704780B582B000AF786063
:10124C007B68013BB3F1807F01D301230FE00A4A95
:10125C007B68013B53600F214FF0FF30FFF790FF8D
:10126C00054B00229A60044B07221A600023184693
:10127C000837BD4680BD00BF10E000E080B582B0ED
:10128C0000AF78607868FFF72DFF00BF0837BD46C8
:10129C0080BD80B586B000AF0346B9607A60FB7341
:1012AC0000237B61FFF742FF78617A68B96878693F
:1012BC00FFF790FF024697F90F3011461846FFF7DB
:1012CC005FFF00BF1837BD4680BD80B582B000AF50
:1012DC000346FB7197F907301846FFF735FF00BF3F
:1012EC000837BD4680BD80B582B000AF78607868A5
:1012FC00FFF7A2FF034618460837BD4680BD000025
:10130C0080B485B000AF78600023FB607B68002B55
:10131C0001D1012343E07B681B681A46224B13441E
:10132C00224AA2FB03231B099A007B681A647B6880
:10133C001F4ADA637B68022283F821207B681B68D2
:10134C001B68FB60FB6823F47F5323F03003FB60C6
:10135C007B685A687B689B681A437B68DB681A4316
:10136C007B681B691A437B685B691A437B689B69C2
:10137C001A437B68DB691343FA681343FB607B6891
:10138C001B68FA681A607B6800229A637B680122EA
:10139C0083F821207B68002283F820200023184644
:1013AC001437BD4680BC7047F8FFFDBFCDCCCCCC0C
:1013BC000000024080B586B000AFF860B9607A607A
:1013CC003B600023FB75FB6893F82030012B01D1A7
:1013DC0002234BE0FB68012283F82020FB6893F882
:1013EC002130DBB2012B3AD1FB68022283F8212099
:1013FC00FB6800229A63FB681B681A68FB681B6811
:10140C0022F001021A603B687A68B968F86800F04B
:10141C0037F9FB68DB6A002B08D0FB681B681A687D
:10142C00FB681B6842F00E021A600FE0FB681B6839
:10143C001A68FB681B6822F004021A60FB681B68C0
:10144C001A68FB681B6842F00A021A60FB681B688A
:10145C001A68FB681B6842F001021A6005E0FB6821
:10146C00002283F820200223FB75FB7D18461837D9
:10147C00BD4680BD80B584B000AF78607B68DB6B07
:10148C001B68FB607B681B681B68BB607B681B6C04
:10149C0004229A40FB681340002B4FD0BB6803F02A
:1014AC000403002B4AD07B681B681B6803F02003E5
:1014BC00002B07D17B681B681A687B681B6822F0BD
:1014CC0004021A607B681B68664A934229D07B68C9
:1014DC001B68654A934222D07B681B68634A93421F
:1014EC001AD07B681B68624A934212D07B681B68D7
:1014FC00604A93420AD07B681B685F4A934202D1D0
:10150C004FF480030EE04FF080630BE04FF4802328
:10151C0008E04FF4804305E04FF4806302E0402381
:10152C0000E00423554A53607B68DB6A002B00F013
:10153C0094807B68DB6A786898478EE07B681B6CCC
:10154C0002229A40FB681340002B56D0BB6803F074
:10155C000203002B51D07B681B681B6803F020032F
:10156C00002B0BD17B681B681A687B681B6822F008
:10157C000A021A607B68012283F821207B681B68B1
:10158C00384A934229D07B681B68374A934222D051
:10159C007B681B68354A93421AD07B681B68344AB7
:1015AC00934212D07B681B68324A93420AD07B6804
:1015BC001B68314A934202D14FF400130EE04FF0F6
:1015CC0000730BE04FF4003308E04FF4005305E0D8
:1015DC004FF4007302E0202300E00223274A5360FB
:1015EC007B68002283F820207B689B6A002B34D018
:1015FC007B689B6A786898472FE07B681B6C082295
:10160C009A40FB681340002B28D0BB6803F00803FA
:10161C00002B23D07B681B681A687B681B6822F040
:10162C000E021A607B681A6C7B68DB6B012101FA75
:10163C0002F25A607B6801229A637B68012283F86C
:10164C0021207B68002283F820207B681B6B002BF9
:10165C0004D07B681B6B7868984700BF00BF1037BD
:10166C00BD4680BD080002401C0002403000024014
:10167C0044000240580002406C000240000002404E
:10168C0080B485B000AFF860B9607A603B60FB68ED
:10169C001A6CFB68DB6B012101FA02F25A60FB68E1
:1016AC001B683A685A60FB685B68102B08D1FB68B2
:1016BC001B687A689A60FB681B68BA68DA6007E096
:1016CC00FB681B68BA689A60FB681B687A68DA600A
:1016DC0000BF1437BD4680BC7047000080B48BB08F
:1016EC0000AF7860396000237B6200233B6269E1C4
:1016FC0001227B6A02FA03F3FB613B681B68FA69FF
:10170C001340BB61BA69FB699A4240F058813B684F
:10171C005B689A4A93425ED0984A934275D8984A2D
:10172C00934258D0964A93426FD8964A934252D0DD
:10173C00944A934269D8944A93424CD0924A934229
:10174C0063D8924A934246D0904A93425DD8122B6A
:10175C002AD8122B59D801A252F823F0E31700080B
:10176C00BD170008CF17000811180008171800083B
:10177C001718000817180008171800081718000881
:10178C001718000817180008171800081718000871
:10179C001718000817180008171800081718000861
:1017AC00C5170008D9170008794A934213D02CE0CA
:1017BC003B68DB683B6229E03B68DB6804333B62D7
:1017CC0024E03B68DB6808333B621FE03B68DB6866
:1017DC000C333B621AE03B689B68002B02D104235C
:1017EC003B6213E03B689B68012B05D108233B62ED
:1017FC007B68FA691A6109E008233B627B68FA6925
:10180C005A6103E000233B6200E000BFBB69FF2B81
:10181C0001D87B6801E07B6804337B61BB69FF2BDB
:10182C0002D87B6A9B0002E07B6A083B9B003B6111
:10183C007B691A680F213B6901FA03F3DB431A40F9
:10184C00396A3B6901FA03F31A437B691A603B68F6
:10185C005B6803F08053002B00F0B1804D4B9B690B
:10186C004C4A43F0010393614A4B9B6903F001031B
:10187C00BB60BB68484A7B6A9B08023352F8233032
:10188C00FB607B6A03F003039B000F2202FA03F355
:10189C00DB43FA681340FB607B68404A934213D0E9
:1018AC007B683F4A93420DD07B683E4A934207D0F7
:1018BC007B683D4A934201D1032306E0042304E0F4
:1018CC00022302E0012300E000237A6A02F0030203
:1018DC0092009340FA681343FB602F497B6A9B0884
:1018EC000233FA6841F823203B685B6803F48013E9
:1018FC00002B06D02D4B9A682C49BB6913438B6087
:10190C0006E02A4B9A68BB69DB43284913408B607D
:10191C003B685B6803F40013002B06D0234BDA689A
:10192C002249BB691343CB6006E0204BDA68BB69E4
:10193C00DB431E491340CB603B685B6803F4003308
:10194C00002B06D0194B5A681849BB6913434B60DE
:10195C0006E0164B5A68BB69DB43144913404B60D5
:10196C003B685B6803F48033002B21D00F4B1A6863
:10197C000E49BB6913430B6021E000BF000032101D
:10198C000000311000002210000021100000121085
:10199C00000011100010024000000140000801403E
:1019AC00000C0140001001400014014000040140F3
:1019BC000B4B1A68BB69DB43094913400B607B6A0C
:1019CC0001337B623B681A687B6A22FA03F3002BB3
:1019DC007FF48EAE00BF00BF2C37BD4680BC704775
:1019EC000004014080B586B000AF78607B68002BA6
:1019FC0001D1012372E27B681B6803F00103002B09
:101A0C0000F08780924B5B6803F00C03042B0CD026
:101A1C008F4B5B6803F00C03082B12D18C4B5B686B
:101A2C0003F48033B3F5803F0BD1894B1B6803F46F
:101A3C000033002B6CD07B685B68002B68D10123D2
:101A4C004CE27B685B68B3F5803F06D1804B1B682A
:101A5C007F4A43F4803313602EE07B685B68002B75
:101A6C000CD17B4B1B687A4A23F480331360784B80
:101A7C001B68774A23F4802313601DE07B685B6846
:101A8C00B3F5A02F0CD1724B1B68714A43F4802321
:101A9C0013606F4B1B686E4A43F4803313600BE08A
:101AAC006B4B1B686A4A23F480331360684B1B68CA
:101ABC00674A23F4802313607B685B68002B13D088
:101ACC00FEF768FE386108E0FEF764FE02463B69EB
:101ADC00D31A642B01D9032300E25D4B1B6803F47A
:101AEC000033002BF0D014E0FEF754FE386108E010
:101AFC00FEF750FE02463B69D31A642B01D903232F
:101B0C00ECE1534B1B6803F40033002BF0D100E0E5
:101B1C0000BF7B681B6803F00203002B63D04C4BA7
:101B2C005B6803F00C03002B0BD0494B5B6803F094
:101B3C000C03082B1CD1464B5B6803F48033002B41
:101B4C0016D1434B1B6803F00203002B05D07B68B6
:101B5C001B69012B01D00123C0E13D4B1B6823F015
:101B6C00F8027B685B69DB00394913430B603AE090
:101B7C007B681B69002B20D0364B01221A60FEF7C4
:101B8C0009FE386108E0FEF705FE02463B69D31AF0
:101B9C00022B01D90323A1E12D4B1B6803F0020397
:101BAC00002BF0D02A4B1B6823F0F8027B685B6992
:101BBC00DB00274913430B6015E0264B00221A600B
:101BCC00FEF7E8FD386108E0FEF7E4FD02463B69EC
:101BDC00D31A022B01D9032380E11D4B1B6803F0A0
:101BEC000203002BF0D17B681B6803F00803002B69
:101BFC003AD07B689B69002B19D0174B01221A60D5
:101C0C00FEF7C8FD386108E0FEF7C4FD02463B69EB
:101C1C00D31A022B01D9032360E10D4B5B6A03F04D
:101C2C000203002BF0D0012000F0CEFA1CE00A4B8E
:101C3C0000221A60FEF7AEFD38610FE0FEF7AAFD38
:101C4C0002463B69D31A022B08D9032346E100BF95
:101C5C00001002400000424280044242924B5B6AF8
:101C6C0003F00203002BE9D17B681B6803F004032B
:101C7C00002B00F0A6800023FB758B4BDB6903F077
:101C8C008053002B0DD1884BDB69874A43F080537E
:101C9C00D361854BDB6903F08053BB60BB680123C8
:101CAC00FB75824B1B6803F48073002B18D17F4BA0
:101CBC001B687E4A43F480731360FEF76BFD38613A
:101CCC0008E0FEF767FD02463B69D31A642B01D985
:101CDC00032303E1754B1B6803F48073002BF0D0D6
:101CEC007B68DB68012B06D16F4B1B6A6E4A43F095
:101CFC00010313622DE07B68DB68002B0CD16A4B6F
:101D0C001B6A694A23F001031362674B1B6A664A1C
:101D1C0023F0040313621CE07B68DB68052B0CD1F9
:101D2C00614B1B6A604A43F0040313625E4B1B6AEF
:101D3C005D4A43F0010313620BE05B4B1B6A5A4A8A
:101D4C0023F001031362584B1B6A574A23F0040318
:101D5C0013627B68DB68002B15D0FEF71BFD386126
:101D6C000AE0FEF717FD02463B69D31A41F28832AE
:101D7C00934201D90323B1E04B4B1B6A03F00203DE
:101D8C00002BEED014E0FEF705FD38610AE0FEF7FB
:101D9C0001FD02463B69D31A41F28832934201D9C4
:101DAC0003239BE0404B1B6A03F00203002BEED194
:101DBC00FB7D012B05D13C4BDB693B4A23F0805367
:101DCC00D3617B68DB69002B00F08780364B5B6846
:101DDC0003F00C03082B61D07B68DB69022B46D126
:101DEC00334B00221A60FEF7D5FC386108E0FEF791
:101DFC00D1FC02463B69D31A022B01D903236DE0B7
:101E0C00294B1B6803F00073002BF0D17B681B6A15
:101E1C00B3F5803F08D1244B5B6823F400327B6818
:101E2C009B68214913434B601F4B5B6823F474126E
:101E3C007B68196A7B685B6A0B431B4913434B60D5
:101E4C001B4B01221A60FEF7A5FC386108E0FEF777
:101E5C00A1FC02463B69D31A022B01D903233DE0B6
:101E6C00114B1B6803F00073002BF0D035E0104BC6
:101E7C0000221A60FEF78EFC386108E0FEF78AFC3F
:101E8C0002463B69D31A022B01D9032326E0064BE9
:101E9C001B6803F00073002BF0D11EE07B68DB693C
:101EAC00012B07D1012319E0001002400070004003
:101EBC00600042420B4B5B68FB60FB6803F48032B2
:101ECC007B681B6A9A4206D1FB6803F470127B682C
:101EDC005B6A9A4201D0012300E0002318461837B0
:101EEC00BD4680BD0010024080B584B000AF786064
:101EFC0039607B68002B01D10123D0E06A4B1B6851
:101F0C0003F007033A689A4210D9674B1B6823F019
:101F1C00070265493B6813430B60634B1B6803F076
:101F2C0007033A689A4201D00123B8E07B681B682A
:101F3C0003F00203002B20D07B681B6803F0040322
:101F4C00002B05D0594B5B68584A43F4E06353604F
:101F5C007B681B6803F00803002B05D0534B5B68B0
:101F6C00524A43F460535360504B5B6823F0F002C9
:101F7C007B689B684D4913434B607B681B6803F07F
:101F8C000103002B40D07B685B68012B07D1474BCA
:101F9C001B6803F40033002B15D101237FE07B6811
:101FAC005B68022B07D1414B1B6803F00073002BBD
:101FBC0009D1012373E03D4B1B6803F00203002B96
:101FCC0001D101236BE0394B5B6823F003027B6882
:101FDC005B68364913434B60FEF7DCFBF8600AE0A4
:101FEC00FEF7D8FB0246FB68D31A41F288329342C3
:101FFC0001D9032353E02D4B5B6803F00C027B6883
:10200C005B689B009A42EBD1274B1B6803F00703DC
:10201C003A689A4210D2244B1B6823F007022249DB
:10202C003B6813430B60204B1B6803F007033A68B3
:10203C009A4201D0012332E07B681B6803F0040351
:10204C00002B08D0194B5B6823F4E0627B68DB68DB
:10205C00164913434B607B681B6803F00803002B85
:10206C0009D0124B5B6823F460527B681B69DB0060
:10207C000E4913434B6000F021F802460B4B5B6892
:10208C001B0903F00F030A49CB5C22FA03F3094A3C
:10209C001360094B1B681846FEF73AFB00231846E1
:1020AC001037BD4680BD00BF00200240001002402A
:1020BC00B8320008000000200400002080B487B073
:1020CC0000AF0023FB600023BB6000237B61002377
:1020DC007B6000233B611E4B5B68FB60FB6803F07D
:1020EC000C03042B02D0082B03D027E0194B3B61C7
:1020FC0027E0FB689B0C03F00F03174AD35C7B6053
:10210C00FB6803F48033002B10D0114B5B685B0C25
:10211C0003F00103114AD35CBB607B680D4A03FBDF
:10212C0002F2BB68B2FBF3F37B6104E07B680C4A00
:10213C0002FB03F37B617B693B6102E0054B3B6176
:10214C0000BF3B6918461C37BD4680BC704700BFBA
:10215C000010024000127A00D0320008E032000871
:10216C0000093D0080B400AF024B1B681846BD4609
:10217C0080BC70470000002080B500AFFFF7F2FF75
:10218C000246054B5B681B0A03F007030349CB5C53
:10219C0022FA03F3184680BD00100240C832000832
:1021AC0080B500AFFFF7DEFF0246054B5B68DB0A2C
:1021BC0003F007030349CB5C22FA03F3184680BDF6
:1021CC0000100240C832000880B485B000AF7860BF
:1021DC000A4B1B680A4AA2FB03235B0A7A6802FBC0
:1021EC0003F3FB6000BFFB685A1EFA60002BF9D1A9
:1021FC0000BF00BF1437BD4680BC704700000020F4
:10220C00D34D621080B586B000AF786000233B617F
:10221C000023FB607B681B6803F00103002B7DD05F
:10222C000023FB754F4BDB6903F08053002B0DD162
:10223C004C4BDB694B4A43F08053D361494BDB6910
:10224C0003F08053BB60BB680123FB75464B1B68D6
:10225C0003F48073002B18D1434B1B68424A43F4A0
:10226C0080731360FEF796FA386108E0FEF792FA75
:10227C0002463B69D31A642B01D903236DE03A4B18
:10228C001B6803F48073002BF0D0364B1B6A03F4ED
:10229C004073FB60FB68002B2ED07B685B6803F4FB
:1022AC004073FA689A4227D02E4B1B6A23F4407372
:1022BC00FB602E4B01221A602C4B00221A60294A1B
:1022CC00FB681362FB6803F00103002B14D0FEF7CC
:1022DC0061FA38610AE0FEF75DFA02463B69D31AEF
:1022EC0041F28832934201D9032336E01D4B1B6A1D
:1022FC0003F00203002BEED01A4B1B6A23F440723E
:10230C007B685B68174913430B62FB7D012B05D17E
:10231C00144BDB69134A23F08053D3617B681B6831
:10232C0003F00203002B08D00E4B5B6823F44042F1
:10233C007B689B680B4913434B607B681B6803F0FD
:10234C001003002B08D0074B5B6823F480027B68DA
:10235C00DB68044913434B60002318461837BD460D
:10236C0080BD00BF0010024000700040400442429B
:10237C0080B588B000AF786000237B610023FB61DF
:10238C0000233B610023FB600023BB617B68102BA7
:10239C000AD07B68102B00F28A807B68012B45D019
:1023AC007B68022B75D082E0464B5B68FB60454B2B
:1023BC001B6803F08073002B7BD0FB689B0C03F035
:1023CC000F03414AD35C3B61FB6803F48033002B61
:1023DC0015D03C4B5B685B0C03F001033B4AD35CB0
:1023EC007B61FB6803F48033002B0DD0384A7B698A
:1023FC00B2FBF3F23B6902FB03F3FB6104E03B69C4
:10240C00344A02FB03F3FB612E4B5B6803F480033D
:10241C00B3F5800F02D1FB69BB614AE0FB695B003D
:10242C002D4AA2FB03235B08BB6142E0254B1B6AD0
:10243C00FB60FB6803F44073B3F5807F08D1FB6845
:10244C0003F00203002B03D04FF40043BB611FE0E9
:10245C00FB6803F44073B3F5007F09D1194B5B6A39
:10246C0003F00203002B03D049F64043BB610FE09D
:10247C00FB6803F44073B3F5407F1CD1114B1B6810
:10248C0003F40033002B16D04FF22443BB6112E04F
:10249C0011E0FFF785FE02460A4B5B689B0B03F0CD
:1024AC00030301335B00B2FBF3F3BB6104E000BF39
:1024BC0002E000BF00E000BFBB6918462037BD46F4
:1024CC0080BD00BF00100240E4320008F432000866
:1024DC0000127A0000093D00ABAAAAAA80B582B00E
:1024EC0000AF78607B68002B01D1012342E07B6850
:1024FC0093F84130DBB2002B06D17B68002283F8C5
:10250C0040207868FEF70AF87B68242283F8412083
:10251C007B681B68DA687B681B6822F40052DA60FF
:10252C00786800F071F97B681B681A697B681B6816
:10253C0022F490421A617B681B685A697B681B689D
:10254C0022F02A025A617B681B68DA687B681B6878
:10255C0042F40052DA607B6800225A647B682022C5
:10256C0083F841207B68202283F842207B6800227C
:10257C005A63002318460837BD4680BD80B58AB023
:10258C0002AFF860B9603B601346FB8000237B61AF
:10259C00FB6893F84130DBB2202B75D1BB68002B64
:1025AC0002D0FB88002B01D101236EE0FB680022D6
:1025BC005A64FB68212283F84120FEF7EBF878611E
:1025CC00FB68FA889A84FB68FA88DA84FB689B6853
:1025DC00B3F5805F08D1FB681B69002B04D1002385
:1025EC00FB61BB68BB6103E0BB68FB610023BB61A3
:1025FC002EE03B6800937B6900228021F86800F094
:10260C0048F80346002B05D0FB68202283F84120B4
:10261C0003233AE0FB69002B0BD1BB691B881A46DC
:10262C00FB681B68C2F308025A60BB690233BB61CA
:10263C0007E0FB691A78FB681B685A60FB69013379
:10264C00FB61FB68DB8C9BB2013B9AB2FB68DA84C2
:10265C00FB68DB8C9BB2002BCBD13B6800937B6976
:10266C0000224021F86800F014F80346002B05D036
:10267C00FB68202283F84120032306E0FB6820221C
:10268C0083F84120002300E0022318462037BD4682
:10269C0080BD80B586B000AFF860B9603B60134672
:1026AC00FB713BE03B6AB3F1FF3F37D0FEF772F8AA
:1026BC0002463B68D31A3A6A9A4202D33B6A002B11
:1026CC0001D103233AE0FB681B68DB6803F00403C9
:1026DC00002B23D0BB68802B20D0BB68402B1DD097
:1026EC00FB681B681B6803F00803082B16D100233A
:1026FC007B61FB681B681B687B61FB681B685B6804
:10270C007B617B69F86800F01DF8FB6808225A644D
:10271C00FB68002283F8402001230FE0FB681B6854
:10272C001A68BB681340BA689A420CBF0123002395
:10273C00DBB21A46FB799A42B4D0002318461837FC
:10274C00BD4680BD80B495B000AF78607B681B68D7
:10275C000C337B637B6B53E8003F3B633B6B23F495
:10276C009073FB647B681B680C33FA6C3A64FB63F4
:10277C00F96B3A6C41E80023BB63BB6B002BE5D1D2
:10278C007B681B6814333B623B6A53E8003FFB6178
:10279C00FB6923F00103BB647B681B681433BA6CC0
:1027AC00FA62BB62B96AFA6A41E800237B627B6A0F
:1027BC00002BE5D17B681B6B012B19D17B681B6847
:1027CC000C33FB60FB6853E8003FBB60BB6823F035
:1027DC0010037B647B681B680C337A6CBA617B6179
:1027EC007969BA6941E800233B613B69002BE5D16B
:1027FC007B68202283F842207B6800221A6300BF8A
:10280C005437BD4680BC704780B584B000AF78604B
:10281C007B681B681B6923F440517B68DA687B6812
:10282C001B680A431A617B689A687B681B691A43A8
:10283C007B685B691343BB607B681B68DB6823F4B4
:10284C00B05323F00C037A681268B9680B43D36059
:10285C007B681B685B6923F440717B689A697B68B1
:10286C001B680A435A617B681B682C4A934203D14C
:10287C00FFF796FCF86002E0FFF77EFCF860FA6860
:10288C0013469B0013449A001A447B685B689B00B8
:10289C00B2FBF3F3224AA2FB03235B091901FA688A
:1028AC0013469B0013449A001A447B685B689B0098
:1028BC00B2FBF3F21A4BA3FB02035B09642000FB8F
:1028CC0003F3D31A1B013233154AA2FB03235B0912
:1028DC0003F0F0031944FA6813469B0013449A0062
:1028EC001A447B685B689B00B2FBF3F20C4BA3FBB6
:1028FC0002035B09642000FB03F3D31A1B01323380
:10290C00074AA2FB03235B0903F00F027B681B68D9
:10291C000A449A6000BF1037BD4680BD00380140A4
:10292C001F85EB510EB46FF0004110B500249DB023
:10293C001FAB02900690079104910948094953F87E
:10294C00042B0591006802A901931B9400F092F9E5
:10295C00029B1C701DB0BDE8104003B0704700BF57
:10296C000C0000200802FFFF03460244934200D1F2
:10297C00704703F8011BF9E7014B1868704700BF5B
:10298C000C00002070B500260C4D0D4C641BA410DF
:10299C00A64209D100F076FC00260A4D0A4C641BB5
:1029AC00A410A64205D170BD55F8043B98470136DA
:1029BC00EEE755F8043B98470136F2E7343300084C
:1029CC00343300083433000838330008704770473C
:1029DC0038B50546002940D051F8043C0C1F002B9B
:1029EC00B8BFE41800F0DEF81C4A136833B9636012
:1029FC0014602846BDE8384000F0DAB8A34208D984
:102A0C00206821188B4201BF19685B680918216086
:102A1C00EDE71A465B680BB1A342FAD9116850185E
:102A2C00A0420BD120680144501883421160E0D1C0
:102A3C0018685B68084410605360DAE702D90C230D
:102A4C002B60D6E7206821188B4201BF19685B68A0
:102A5C000918216063605460CBE738BD1403002073
:102A6C0070B50F4E0C463168054611B900F0A8FB45
:102A7C0030602146284600F0A3FB431C03D14FF0E5
:102A8C00FF34204670BDC41C24F00304A042F8D0CF
:102A9C00211A284600F094FB0130F2D1EFE700BF79
:102AAC00100300202DE9F843CD1C25F00305083553
:102ABC000C2D38BF0C25002D064601DBA94204D98C
:102ACC000C2333600020BDE8F883DFF8D48000F0DD
:102ADC0069F8D8F800301C4644BB29463046FFF74D
:102AEC00BFFF431C044658D1D8F800402746002F9E
:102AFC0043D1002C4BD023683946304604EB0309F4
:102B0C0000F05EFB814542D1216830466D1A2946A2
:102B1C00FFF7A6FF01303AD023682B442360D8F886
:102B2C0000305A6862BBC8F800700FE02268521B74
:102B3C0020D40B2A17D96119A342256018BF5960FC
:102B4C00636808BFC8F8001062514B60304600F053
:102B5C002FF804F10B00231D20F00700C21A1CBF34
:102B6C001B1AA350AFE76268A3420CBFC8F8002041
:102B7C005A60EBE723466468AEE73C467F68B6E7ED
:102B8C001A465B68A342FBD100235360DEE70C239B
:102B9C003046336000F00CF894E70560D6E700BFD0
:102BAC00140300200148FFF711BF00BF0C030020E5
:102BBC000148FFF70CBF00BF0C0300202DE9F047C4
:102BCC001F468E688246BE420C4690460B682DD836
:102BDC00B1F90C2012F4906F26D06569096905EBE8
:102BEC004505A3EB010905EBD5757B1C4B446D101A
:102BFC009D4238BF1D46530527D52946FFF752FF86
:102C0C00064660B34A46216900F0F8FAA38923F41A
:102C1C00906343F08003A38126614E4426603E46B8
:102C2C006561A5EB0905A560BE4200D93E4632465A
:102C3C004146206800F0AAFA0020A3689B1BA36001
:102C4C00236833442360BDE8F0872A4600F0E4FA99
:102C5C0006460028E0D150462169FFF7B9FE0C2347
:102C6C00CAF80030A3894FF0FF3043F04003A38132
:102C7C00E9E700002DE9F04F98468B8907461B06C3
:102C8C000D4614469DB010D50B6973B94021FFF762
:102C9C0009FF2860286130B90C233B604FF0FF30EE
:102CAC001DB0BDE8F08F40236B61002309932023F6
:102CBC008DF8293030234FF00109CDF80C80DFF866
:102CCC0098818DF82A3023469A4613F8012B0AB1C5
:102CDC00252AF9D1BAEB040B0BD05B4622462946C8
:102CEC003846FFF76BFF013000F0A780099A5A4471
:102CFC0009929AF80030002B00F09F8000234FF0CF
:102D0C00FF32CDE905230AF1010A049307938DF8EC
:102D1C0053301A935446052214F8011B4E4800F008
:102D2C005FFA049AD8B9D00644BF20238DF85330EB
:102D3C00110744BF2B238DF853309AF800302A2BFF
:102D4C0015D0544600204FF00A0C079A214611F872
:102D5C00013B303B092B4BD9B0B1079214E0A0EBEF
:102D6C00080309FA03F31343A2460493D2E7039B27
:102D7C00191D1B680391002BBBBF5B4242F0020282
:102D8C0007930793B8BF049223782E2B0AD163784C
:102D9C002A2B32D1039B02341A1D1B68039243EA7F
:102DAC00E3730593DFF8B4A003225046217800F0BA
:102DBC0017FA38B14022049BA0EB0A00824013435F
:102DCC000134049314F8011B062225488DF82810B1
:102DDC0000F006FA002836D0224B1BBB039B0733AE
:102DEC0023F0070308330393099B334409936AE7E1
:102DFC000C4601200CFB0232A8E700234FF00A0C12
:102E0C00194601340593204610F8012B303A092A53
:102E1C0003D9002BC6D00591C4E7044601230CFB53
:102E2C000121F0E703AB00932A4638460E4B04A968
:102E3C00AFF30080421C0646D6D1AB895B063FF54A
:102E4C002DAF09982CE703AB00932A463846064B66
:102E5C0004A900F07DF8EDE7F6320008FC3200081A
:102E6C000033000800000000C92B00082DE9F047D2
:102E7C00164698468A680B6907469342B8BF1346B4
:102E8C00336091F843200C46DDF820900AB10133F1
:102E9C0033602368990642BF336802333360256878
:102EAC0015F0060506D104F1190AE36832689B1A7D
:102EBC00AB422BDC94F843302268003B18BF012353
:102ECC00920630D44146384604F14302C8470130DB
:102EDC0023D02368226903F00603042B14BF0025BA
:102EEC0033684FF0000608BFE56804F11A0408BF08
:102EFC00ED1A54F8123C08BF25EAE5759342C4BF9D
:102F0C009B1AED18B5421AD1002008E00123524655
:102F1C0041463846C847013003D14FF0FF30BDE879
:102F2C00F0870135C1E73020E11881F843005A1CC5
:102F3C0094F845102244023382F84310C2E701236F
:102F4C00224641463846C8470130E6D00136D9E71B
:102F5C002DE9FF470F7E9146782F80460C469A4606
:102F6C000C9E01F1430207D8622F0AD8002F00F003
:102F7C00D180582F00F0B88004F1420684F84270DA
:102F8C003AE0A7F16303152BF6D801A151F823F011
:102F9C00F52F000809300008852F0008852F000840
:102FAC00852F0008852F000809300008852F0008A0
:102FBC00852F0008852F0008852F00080731000891
:102FCC0033300008C1300008852F0008852F000819
:102FDC0029310008852F000833300008852F0008A0
:102FEC00852F0008C930000833681A1D1B68326031
:102FFC0004F1420684F8423001239CE033682068D7
:10300C00191D3160060601D51D6803E04506FBD588
:10301C00B3F90050002D03DA2D236D4284F84330B0
:10302C000A23584811E021683368080653F8045BFA
:10303C0002D4490648BFADB26F2F336014BF0A23C8
:10304C0008235048002184F843106668002EA660BF
:10305C0005DB21682E4321F0040121604BD016467C
:10306C00B5FBF3F103FB1157C75D06F8017D2F4645
:10307C00BB420D46F4D9082B0BD12368DF0708D5CA
:10308C00236961689942DEBF302306F8013C06F1E2
:10309C00FF36921B22614B4621464046CDF800A0DC
:1030AC0003AAFFF7E3FE01304AD14FF0FF3004B022
:1030BC00BDE8F087236843F020032360782732486B
:1030CC0084F84570236831681F0651F8045B02D4FC
:1030DC005F0648BFADB23160D90744BF43F020034F
:1030EC0023601DB11023ADE72648E9E7236823F0E0
:1030FC0020032360F6E71646BDE733682568181DE4
:10310C00616930602E061B6801D5196002E0680603
:10311C00FBD51980002316462361BCE733680021D8
:10312C001A1D32601E686268304600F059F808B10A
:10313C00801B606063682361002384F84330AAE736
:10314C003246494640462369D0470130ADD023680A
:10315C009B0713D4E068039B9842B8BF1846A6E7B8
:10316C000123324649464046D04701309DD00135B7
:10317C00E36803995B1AAB42F2DCEBE7002504F140
:10318C001906F5E70733000818330008884210B514
:10319C0001EB020402D98442234607D8431EA14204
:1031AC0008D011F8012B03F8012FF8E7014602446F
:1031BC008A4200D110BD13F8014D02F8014DF7E71A
:1031CC0038B50023054D044608462B60FDF728FA58
:1031DC00431C02D12B6803B1236038BD08030020C7
:1031EC00034610B5C9B202449342184601D10020DF
:1031FC0003E0047801338C42F6D110BD0A449142AD
:10320C0000F1FF3300D1704710B511F8014B91421A
:10321C0003F8014FF9D110BD2DE9F04107461446D2
:10322C000D4621B91146BDE8F041FFF73BBC2AB968
:10323C00FFF7CEFB25462846BDE8F08100F01AF8D2
:10324C008442064602D8B4EB500FF4D821463846D7
:10325C00FFF728FC804608B94546ECE7B442224605
:10326C00294628BF3246FFF7C9FF29463846FFF7E3
:10327C00AFFBF1E751F8043C181F002BBCBF0B58F7
:10328C00C0187047F8B500BFF8BC08BC9E46704724
:0C329C00F8B500BFF8BC08BC9E467047A7
:1032A8006D65646961203D202534750D0A000000B4
:1032B80000000000000000000102030406070809DE
:1032C80000000000010203040203040506070809C0
:1032D8000A0B0C0D0E0F101001020000020304056A
:1032E800060708090A0B0C0D0E0F10100102232DFA
:1032F800302B2000686C4C006566674546470030F7
:103308003132333435363738394142434445460043
:103318003031323334353637383961626364656643
:0433280000000000A1
:08332C0020CEFF7F010000002C
:04333400310100085B
:043338000D0100087B
:10333C0000127A00100000000100000010000020B4
:10334C0000000000D001002038020020A002002064
:10335C000000000000000000000000000000000061
:10336C000000000000000000000000000000000051
:10337C000000000000000000000000000000000041
:0C338C0000000000000000000000000035
:04000005080006A544
:00000001FF
